:020000040000FA
:1000000048E90020410200003D0E000045090000C3
:10001000390E00005F040000C31000000000000063
:100020000000000000000000000000005901000076
:100030005907000000000000B50100008D0F00000E
:100040005B0200005B0200005B0200005B0200003C
:100050005B0200005B0200005B0200005B0200002C
:10006000911000005B0200005B0200005B020000D8
:100070005B0200005B0200005B0200005B0200000C
:100080005D0700005B020000810700005B020000CA
:10009000B9070000D1070000510800005B02000012
:1000A00005030000751000005B0200005B02000009
:1000B0005B0200005B0200005B0200005B020000CC
:1000C0005B0200005B02000045070000410E0000DB
:1000D0005B0200005B0200005B0200005B020000AC
:1000E0005B020000000000000000000000000000B3
:1000F0000000000000000000000000000000000000
:1001000000000000000000000000000000000000EF
:1001100000000000000000000000000000000000DF
:1001200000000000000000000000000000000000CF
:1001300000000000000000000000000000000000BF
:1001400000000000DFF80CD000F09EF800480047E7
:10015000AD19000048E900202C4B19680868B0E888
:10016000F04F80F30988BFF36F8F4FF0000080F3EA
:10017000118870470000000008480068006880F39C
:1001800008884FF0000080F3148862B661B6BFF3B0
:100190004F8FBFF36F8F00DF00BF00BF08ED00E09F
:1001A000DFF80C00016841F470010160704700BF86
:1001B00088ED00E0EFF30980BFF36F8F134B1A68EF
:1001C0001EF0100F08BF20ED108A20E9F04F1060DC
:1001D00009B44FF0A00080F31188BFF34F8FBFF335
:1001E0006F8F02F095FD4FF0000080F3118809BC7D
:1001F00019680868B0E8F04F1EF0100F08BFB0ECA7
:10020000108A80F30988BFF36F8F70478C04002039
:10021000EFF3058070470000EFF3108072B670476F
:10022000EFF310807047EFF3108062B6704730BF75
:10023000704780F311887047EFF31180704700001A
:100240000648804706480047FEE7FEE7FEE7FEE770
:10025000FEE7FEE7FEE7FEE7FEE7FEE7C10F000070
:100260004501000040EA01039B0703D009E008C9EB
:10027000121F08C0042AFAD203E011F8013B00F86B
:10028000013B521EF9D27047064C074D06E0E0686C
:1002900040F0010394E8070098471034AC42F6D3CD
:1002A000FFF754FFF84100001842000070B58C18A9
:1002B00010F8015B15F0070301D110F8013B2A117A
:1002C00006D110F8012B03E010F8016B01F8016B67
:1002D0005B1EF9D12B0705D40023521E0DD401F863
:1002E000013BFAE710F8013BCB1A921C03E013F82C
:1002F000015B01F8015B521EF9D5A142D8D3002061
:1003000070BD00007CB51A490968886E80470446B4
:100310000D4617480068C26E2046294690470423C0
:1003200004EA030100204140404001431FD06846D9
:1003300000F024F802200DE03DF8101000EBC002A0
:1003400002EB00120B4B03EB82020B4B1B7822F8E3
:100350001310401E0028EFDA074801780078401C8F
:10036000054A1070322902D10020114608707CBD68
:1003700004080002000D00203A000020104910B4CB
:100380004968104A01F4F81102EB91310E4B0968EB
:10039000DFF838C00022B1F8804020F812404C014C
:1003A00004F18444247F002C1CBF10BC7047994288
:1003B00014BF091D6146521C202AECD310BC7047A3
:1003C00000200140E8400000942001401820014036
:1003D00010B50221042000F057FA0421084600F06D
:1003E00069FA0821042000F065FA1021042000F0C9
:1003F00061FA2021042000F05DFA4021042000F081
:1004000059FA10BD2DE9F04104460D4616461F4627
:100410002A2000F024FCC4F3072000F016FCE0B210
:1004200000F013FCC6F3072000F00FFCF0B200F060
:100430000CFC2B2000F013FCC5F3072000F005FC9A
:10044000E8B200F002FCC7F3072000F0FEFBF8B2B0
:1004500000F0FBFB2C2000F002FCBDE8F08100BFA7
:10046000FEE7000070B5524E82B03068514D00F486
:10047000E020B0F5403F08BF4F4C1AD00EDC0028FA
:1004800008BF4E4C15D0B0F5803F08BF4C4C10D083
:10049000B0F5003F08BF4B4C0BD009E0B0F5802F02
:1004A00008BF494C05D0B0F5A02F08BF2C4600D09E
:1004B00000246B4601AA0021032000F03FFD0198B3
:1004C000002850D0414B18694228306842D9C0F307
:1004D000090111F4007F18BF41F47E4000D001B241
:1004E000B9B33B48AC4241D11A69422A3ED990F88F
:1004F000D8000028009819BF90ED0F0A426A90EDCD
:10050000070A4268186901EE101A4228C2F54070C5
:10051000B8EEC11AB7EE002AF0EE420A60EE011AF8
:1005200001EE100AB8EEC11A40EE010A2AD902B053
:1005300081EEA00AF0EE420A70EEC00A00EE104A08
:10054000B8EE400A80EE201ABCEEC10A10EE100A86
:1005500070BD08E0C0F30C0111F4805F18BF41F4D6
:100560007040BCD1BCE702B0204670BD90F8D80006
:100570000028009819BF90ED0E0A026A90ED060A55
:100580000268BFE7B2EE000A02B020EE801AF0EE79
:10059000420A81EE810A70EEC00A00EE104AB8EEFF
:1005A000400A80EE201ABCEEC10A10EE100A70BD9F
:1005B00004040140006CDC02001BB70060E316007D
:1005C000C0C62D00808D5B0000366E01001020003B
:1005D0000080204204490868096800F0070001F41F
:1005E000E021090300F07CBD08040140014AC2E992
:1005F0000010704708050020002100F001B800003D
:100600002DE9F0470C464049064646F65A10086068
:1006100000F08EFC00F00107012000F079FC3B485F
:1006200002683B48A2F57421A1F51071814228D9D6
:10063000384811183848814298BF4FF4801221D9A8
:10064000364811183648814298BF4FF4001219D924
:1006500034491144814298BF4FF4401212D93249B3
:100660001144814298BF4FF480020BD92F491144A5
:10067000814203D92E491144814202D84FF4A0028D
:1006800000E00022002C14BF012500250121294B88
:1006900083F8C0112848D0F800C02CF4E00C4CEAD4
:1006A000020CC0F800C04FF00008002E14BF83F801
:1006B000E41183F8E48183F8E011DFF880C09CF84E
:1006C0000000002818BF1E4808D00DB1641E05D0D8
:1006D00001709CF80090B9F1000FF6D166B1197065
:1006E000384600F01DFC25B1002C04BF0020BDE8F9
:1006F000F0870120BDE8F087002A14BF83F8C011FD
:1007000083F8C081EBE700000004014008050020E9
:10071000C0C62D00FFF6C2FFFF083D00FFED85FFBC
:10072000FF117A00FFDB0BFFFFC991FEFFB717FE39
:10073000FFA59DFD008020420C0401400489204259
:10074000048A204210B503480068416E4FF0807063
:10075000884710BD180800027047000010B5064811
:100760000068416C054888470446034800682146F4
:10077000C26B0248904710BD6008000200100040A4
:1007800070B50B480068416C0A4888470446084821
:1007900000682146C26B0748904704F0010028B169
:1007A000044800F081FC054600F0B2FF70BD000077
:1007B000600800020018004010B5044800F08AFBF1
:1007C00004462146014800F063FB10BD00200040B4
:1007D00070B51B4800F0BDF804462146184800F0EB
:1007E000B3F804F0200070B116480068416C14485A
:1007F0008847144800680221D0F88C2010489047A0
:1008000002201149087004F0040010B104200E49C0
:10081000087004F0080010B103200B49087004F0C0
:10082000020060B109480068017808480068401C6F
:10083000064D286003480068426B0148904770BD30
:1008400000240040280800020400002008000020C6
:1008500010B5044800F03EFB04462146014800F074
:1008600017FB10BD002800400248016841F04041DC
:100870000160704734EF00E00248016841F4700104
:100880000160704788ED00E0094A52F82000428973
:100890008A43428182898A43828182888A43828014
:1008A000C2880A43C28042881143418070470000D9
:1008B00010050020064A52F8200042898A434281EE
:1008C00082898A4382818288114381807047000037
:1008D00010050020104B53F8200083880B438380C1
:1008E000012A0BD0022A10D0032A18BF7047428970
:1008F0000A434281828911438181704742890A43B8
:100900004281828922EA0101F6E742898A434281D3
:10091000828911438181704710050020034A52F8F3
:1009200020004288114341807047000010050020DC
:10093000034A52F82000428822EA010141807047B0
:100940001005002000BFFEE7828D22EA01018185AB
:100950007047418D808D084070470123420102F1AC
:100960008442137042880B8A22F00C021A434280A0
:100970008A8942810A88038840F6017C23F0C003FB
:1009800043EA0C031A430280D1E90121B2FBF1F1E1
:10099000C180704710B5FFF73FFC002818BF012049
:1009A00010BD00001649042804BF086840F48030D8
:1009B00018D0052804BF086840F4003012D006287B
:1009C00012D00F2815D0102838BF7047103800F00B
:1009D0001F01012202FA01F142090A4850F82200DF
:1009E0000160704708607047086840F48020086024
:1009F00070474FF0E020016941F00101016170474B
:100A000024ED00E06841000010B5FFF70CFC002861
:100A100018BF012010BD0000044951F8200004490E
:100A200040F47F0040F07F4008607047884100003C
:100A30000CED00E070B50646EF231A46002108468B
:100A4000FFF7E0FC00240AE0002504E0304600F057
:100A5000EEF8681C85B2F02DF8DB601C84B2F02C37
:100A6000F2DB70BD70B504460D462B462246294682
:100A70002046FFF7C7FC0248008800F0D8F870BD98
:100A80007E0400202DE9FF5F05460F461646AA4664
:100A90003348B0F800B0E02D01DCE02F01DDBDE807
:100AA000FF9FA6F12000C6B207F10F03EA1D3946E9
:100AB0002846FFF7A7FC039858BB002426E004EB68
:100AC0000610284911F800904FF0000816E009F0D0
:100AD000010018B12248A0F800B003E022480088C5
:100AE0001F4908801E48008800F0A1F84FEA6909F4
:100AF000681C85B208F1010000F0FF08B8F1080F8A
:100B0000E5DB5546781C87B2601CC4B2102CD6DBDE
:100B100020E000241CE004EB0610124911F80090BC
:100B20004FF000080FE009F0010030B13A1991B21E
:100B300005EB080290B2FFF795FF4FEA690908F14B
:100B4000010000F0FF08B8F1080FECDB601CC4B234
:100B5000102CE0DB0248A0F800B000BF9FE70000C7
:100B60007E040020F83A00007C0400202DE9F047C4
:100B70000646894617461D464FF0000ABFB20024BC
:100B80002FE0281B401EC1B20A2000F07BFFB7FBFC
:100B9000F0F00A21B0FBF1F201FB1208BAF1000FEC
:100BA00011D1681EA0420EDDB8F1000F09D1082155
:100BB00001FB046188B2002320224946FFF762FF4F
:100BC0000DE04FF0010A08F13001CAB2082101FB23
:100BD000046188B200234946FFF754FF00BF601C40
:100BE000C4B2AC42CDDBBDE8F08770B505460E4619
:100BF000144618E0E02D03DD002506F1100086B252
:100C0000E02E06DD0020054606464FF47840FFF74B
:100C100011FF2278002331462846FFF733FF05F104
:100C2000080085B2641C20780028E3D170BD10B59F
:100C3000044680210520FFF771FEC4F3072000F071
:100C400019F8E0B200F016F810BD10B50446802186
:100C50000520FFF763FE204600F00CF810BD10B52C
:100C6000044680210520FFF763FE204600F002F8CD
:100C700010BD000010B504460348006821464269D3
:100C80000248904710BD00004C08000200280040B8
:100C900010B580210520FFF70DFE40210520FFF74C
:100CA00009FE01210320FFF705FE40210520FFF783
:100CB0003FFE142000F034FC40210520FFF72EFEFB
:100CC000142000F02DFC01210320FFF727FE362021
:100CD000FFF7C5FF0220FFF7B8FF3A20FFF7BFFF7D
:100CE0000520FFF7B2FFB220FFF7B9FF0C20FFF796
:100CF000ACFF0C20FFF7A9FF0020FFF7A6FF332071
:100D0000FFF7A3FF3320FFF7A0FFB720FFF7A7FFF0
:100D10003520FFF79AFFBB20FFF7A1FF1920FFF74F
:100D200094FFC020FFF79BFF2C20FFF78EFFC2200F
:100D3000FFF795FF0120FFF788FFC320FFF78FFF24
:100D40001220FFF782FFC420FFF789FF2020FFF762
:100D50007CFFC620FFF783FF0F20FFF776FFD02030
:100D6000FFF77DFFA420FFF770FFA120FFF76DFFC5
:100D7000E020FFF774FFD020FFF767FF0420FFF7A4
:100D800064FF0D20FFF761FF1120FFF75EFF1320C6
:100D9000FFF75BFF2B20FFF758FF3F20FFF755FFC2
:100DA0005420FFF752FF4C20FFF74FFF1820FFF7AA
:100DB0004CFF0D20FFF749FF0B20FFF746FF1F20D8
:100DC000FFF743FF2320FFF740FFE120FFF747FF36
:100DD000D020FFF73AFF0420FFF737FF0C20FFF782
:100DE00034FF1120FFF731FF1320FFF72EFF2C20D7
:100DF000FFF72BFF3F20FFF728FF4420FFF725FFD9
:100E00005120FFF722FF2F20FFF71FFF1F20FFF7C2
:100E10001CFF1F20FFF719FF2020FFF716FF2320DC
:100E2000FFF713FF2120FFF71AFF1120FFF717FF2D
:100E30002920FFF714FF10BD00BFFEE77047000038
:100E400010B512480068C16B0120884704460F485E
:100E500000682146426B0120904704F0020040B137
:100E60000A2000F05DFB09480068C16B012088473B
:100E70000AE004F0100038B10A2000F051FB0348EA
:100E80000068C16B0120884710BD000024080002E3
:100E900070B50D46044600F071FD0028E8B204D09C
:100EA000A18B21EA0000A08370BDA18D21EA000082
:100EB000A08570BD70B50D46044600F05FFD0028AA
:100EC000E8B203D0618B0843608370BD618D084335
:100ED000608570BD10B5044600F050FD0028204626
:100EE0000AD000F04BFD002820460CBF808D808B7F
:100EF00000F00300618B09E000F040FD002820466F
:100F000014BF808B808D00F00300618D084010BD00
:100F100002494A6822EA000048607047003004E055
:100F200002494A681043486070470000003004E0FE
:100F30000148406870470000003004E030B4DFF83A
:100F400044C0114D0BE0844203D1002918BF491E53
:100F50000BD0DCF804400CEB840C0CF1080CDCF832
:100F60000040844218BFAC42EDD1844206BFDCF899
:100F7000040080000020106008BF0CF10800186019
:100F800030BC7047041020001DE1D00B10B500BF2D
:100F9000A02080F31188BFF34F8FBFF36F8F00BF86
:100FA00002F018FB18B14FF080500449086000BFF0
:100FB000002080F3118800BF10BD000004ED00E0A8
:100FC0002548006840F47000234908604FF4B5409C
:100FD0002249088080202249486100BF214840689A
:100FE00000F480700028F9D11F481E49086000BF36
:100FF0001C48406800F480700028F9D11B48006943
:1010000020F4704040F48050184908610846406957
:1010100020F4704040F48050486146F65A1014495C
:1010200008604FF4A020091D0860081D006820F02A
:101030000710C01C091D086000200D4908600B48FE
:10104000006940F03000094908610846406940F0F5
:10105000300048617047000088ED00E00C48004017
:10106000003004E00000014001005A690010014016
:101070000004014010B504480068016A034888472D
:1010800000F018FA10BD00005C08000200C000402B
:1010900010B504480068816C4FF0804088470446D2
:1010A00010BD000058080002410101F1844191F88F
:1010B00040231AB991F88023002AFBD08089C0B25E
:1010C000704700BFFEE7000004490888C0B240F046
:1010D000800000F5B4400880704700000C480040D4
:1010E0002DE9F04731F0704216D10917082913D2C3
:1010F000DFE801F0120406080A0C0E1002240CE0CE
:1011000004240AE0082408E0102406E0202404E077
:10111000402402E0802400E001240126DFF8AC90A6
:101120002B492C4F2C4BF503DFF8B08046F65A12B2
:101130004FF4FA3C062846D2DFE800F0033336408D
:10114000431B274890F800A0BAF1000F0BD0C9F854
:1011500000200A6842F001020A603E70007810B177
:10116000187838B322E0D8F80400B0FBF4F0BDE8FA
:10117000F0871C4890F800A0BAF1000F0BD0C9F816
:1011800000200A6842F002020A603E70007810B146
:10119000187878B10AE0D8F80000B0FBF4F0BDE8A8
:1011A000F08742F21070F8E7187818B1BCFBF4F041
:1011B000BDE8F087B5FBF4F0BDE8F087FFF752F922
:1011C000EBE70948E9E70020BDE8F08700040140AB
:1011D00050040140008020423C8620420805002047
:1011E000008920420489204200366E0102E008C8CE
:1011F000121F08C1002AFAD170477047002001E091
:1012000001C1121F002AFBD17047000070B50B46C8
:101210000021002400250022DFED160AB0EE600A4E
:101220000488058806883244012110E030F81160F6
:10123000A64201D930F8114030F81160AE4201D217
:1012400030F8115030F8116032444E1CF1B299421E
:10125000ECD3161B721B9E1E00EE906AB8EE601A4D
:1012600000EE902AF8EE600AC0EE811AB0EE610A34
:1012700070BD00000000000010B5022413E004EB74
:10128000C40101EB0411094A02EB81003221FFF78E
:10129000BDFFDFED070A20EE200A064800EB8400C0
:1012A00080ED000A641E002CE9DA10BD000D00205C
:1012B000333353392C0E002010B5384909680868BB
:1012C00080473648006800234FF48002194684683E
:1012D0004FF4C010A04731480068C16830208847EB
:1012E0002E482030006803223821C3690520984722
:1012F0002A48006801220421C369104698472748FC
:10130000006800231A461946046B0120A0472348B1
:101310000068002301221946046B0220A0471F48E1
:101320000068002302221946046B0420A0471B48D2
:10133000543000681A4982684FF08040904717483F
:1013400054300068174942694FF080409047134875
:101350000068002142694FF0006090470F48006824
:10136000C26D0420002190470C490968486A8047F3
:101370000A482830006881692820884707482830B3
:101380000068E02102692820904704485430006832
:10139000102102688806904710BD00000408000272
:1013A000D03A0000E83A000010B519480068022160
:1013B00042690120904716480068102142690120C7
:1013C0009047134800680221426B01209047104863
:1013D00000681021426B012090470D4800680221EF
:1013E000826A012090470A4800681021826A012021
:1013F00090470748083000688169332088470448CF
:1014000008300068E02102693320904710BD0000D9
:101410002408000210B52248006801220C218369CB
:101420000B2098471F494FF44860FFF7DFF81C482E
:1014300010300068016801208847194808380068A2
:101440000321426D002090471548083800680321A9
:10145000426D012090470020FFF7CEF81048103869
:101460000068002205210368022098470C481038C4
:1014700000680022052103680820984708481038B2
:1014800000680022052103680420984704481038AA
:1014900000680022052103680120984710BD000064
:1014A00024080002006CDC0201480068704700005C
:1014B0000000002002480068401C01490860704795
:1014C0000000002010B51448006801231A460421CA
:1014D00004681248A0471048303800688169292004
:1014E00088470D48006881690C4888470A483038A9
:1014F000006800210269292090470748006840F6EB
:10150000B8314268054890470348006800210269E5
:101510000248904710BD00005C08000200C0004077
:1015200000B50146FFF7C0FF03460A46501C00B154
:10153000521C00BFFFF7B8FFC01A9042FAD300BD9B
:1015400010B5012230210620FFF7C4F9FFF742F859
:10155000024948600248FFF700FA10BD0C00002065
:101560000024004010B506480068012102680846C2
:10157000904703480068012182680846904710BDE3
:101580002408000210B5034800680121C26808461B
:10159000904710BD2408000210B5124800680121D0
:1015A0000268022090470F4800680221026808463E
:1015B00090470C48006804210268022090470948BF
:1015C00000680121826802209047064800680221D5
:1015D0008268084690470348006804218268022018
:1015E000904710BD2408000210B504461648006854
:1015F0000121826802209047134800680221826816
:1016000008469047104800680421826802209047ED
:1016100004F0010028B10C48006801214268022052
:101620009047C4F3400028B107480068022142688F
:1016300008469047C4F3800028B10348006804219D
:1016400042680220904710BD2408000210B52B48C4
:1016500000680122E0218369104698472748006806
:101660000122E0218369032098472448283000683C
:1016700023490268234890472048283000682249BF
:101680000268224890471D4828300068C1691D48FB
:1016900088471A4828300068C1691C48884717489D
:1016A000283000680221026C164890471348283001
:1016B00000680221026B1348904710480830006808
:1016C0008169242088470D4808300068D0210269CC
:1016D0002420904702210D48FFF7DAFB02210B4836
:1016E000FFF7E8FB2620FFF75DF9044808300068A3
:1016F000D02102692620904710BD00002408000276
:101700006C3A000000200040503A000000280040E1
:101710004B49097806297DD2DFE801F00313232F16
:101720004B5DFF2803D10121454A117008E00021DB
:10173000434A1170434A1170434A1170434A117071
:101740007CE0112803D102213D4A117008E00021FC
:101750003B4A11703B4A11703B4A11703B4A117071
:101760006CE0394908700321354A1170364909780F
:1017700001F58871354A117060E032490A780978BC
:10178000491C304B1970324988543049097801445A
:101790002E4A1170194609782B4A1278914207D1C6
:1017A0000421274A117000211A461170264A11702F
:1017B00044E026490978814203D10521204A11706D
:1017C00008E000211E4A11701E4A11701E4A117055
:1017D0001E4A117032E00D281AD11D4949781C4A61
:1017E000127801EB022109B21A4A11801849C9780E
:1017F000174A927801EB022109B2174A1180144965
:101800004979134A127901EB022109B2134A118076
:10181000002100E008E00A4A11700A4A11700A4AE1
:1018200011700A4A117009E00021054A1170074A37
:101830001170044A1170044A117000BF00BF704754
:10184000360000203700002038000020390000203A
:10185000000C002020000020220000202400002096
:1018600010B54048006801220C21C3691046984712
:101870003C483C3000683C4902683C489047394845
:101880003C30006881683948884736483C300068F9
:101890000121026B35489047324808300068816961
:1018A000202088472F480830006840210269202006
:1018B00090472C490C3909680868804729480C383A
:1018C0000068C1692A48884726480C380068C16CFE
:1018D0004FF08070884723480C3800684FF0404133
:1018E000826B4FF0807090471E480C3800680021D2
:1018F000426D322090471B480830006881693220D1
:101900008847184808300068202102693220904733
:101910001448006801220C21C3690320984711482C
:101920003C30006813490268134890470D483C302A
:1019300000688168104888470A483C3000680121E7
:10194000026B0D4890470748083000686021026923
:101950002220904703480830006881692220884788
:1019600010BD000024080002883A0000001000406A
:1019700000080020AC3A000000180040A0F18041AF
:10198000B1F580511CBFA0F18041B1F5A0510AD042
:10199000A0F18041B1F5C0511FBFA0F18041B1F568
:1019A000E051002070470120704700001CB5FFF790
:1019B0008BFBFFF72FFD0320FFF72EF8FEF7EAFF62
:1019C000FEF752FFFEF758FFFFF77CFDFFF7CAFD59
:1019D000FFF7B6FDFFF7E0FDFFF7E6FCFFF736FE89
:1019E000FFF73EFFFFF768FCFFF730FEFFF70CF84C
:1019F000FEF7EEFCFFF74CF94FF47840FFF71AF8CA
:101A00004FF6FF70FFF716F84FF6E070FFF712F889
:101A100000F036FF1148012100238022CDE900109B
:101A20000FA1124801F090FD1148022100238022ED
:101A3000CDE900100FA1124801F086FD00F04AFF29
:101A400001F014F908E0FFF79DFD0120FFF7CCFD40
:101A50004FF47A70FFF764FDF5E700008004002082
:101A60004C6F675F5461736B00000000112700002A
:101A7000880400204C6F675F6D61696E0000000094
:101A8000D927000010B50246012000E050430B1E8C
:101A9000A1F10104E1B2F9D110BD00002DE9F0413E
:101AA00005460E461C4807681C480068001D00F0EB
:101AB0009DFE50B91948006890F82C10012088400C
:101AC00017490968814316480160681C38B936B166
:101AD00012480168091D134800F0C6FE1AE07C197F
:101AE0000E4800684460BC4207D20C480168091DDA
:101AF0000D48006800F09EFE0CE008480168091DD2
:101B00000A48006800F096FE09480068844201D245
:101B100007480460BDE8F081A00400208C04002088
:101B2000A404002008110020940400209004002048
:101B3000BC04002010B5044600F0A2FE2348006853
:101B4000401C224908602248006840B920480460CF
:101B50000846006801280DD100F0C4F90AE01D48CC
:101B6000006838B91A480068C06AE16A884201D83A
:101B70001748046018480068401C1749086094F82A
:101B80002C10012088401549096808431349086052
:101B9000E16A01EB8101124A02EB8100211D00F094
:101BA00063FE00F097FE0B48006868B108480068C3
:101BB000C06AE16A884207D24FF080500949086044
:101BC000BFF34F8FBFF36F8F10BD00009C04002048
:101BD0008C040020A8040020B8040020A4040020E5
:101BE000380E002004ED00E010B500F049FE0C486E
:101BF000006890B90B4800F00DFE0B4800F00AFE9B
:101C000008480A490860084809490860002210216C
:101C10000A2001F08BF90249086000F05BFE10BD5C
:101C2000D00400201C11002030110020C804002026
:101C3000CC04002010B516E000F022FE0C48C0686D
:101C4000C468201D00F0D2FD0A480068401E094902
:101C5000086009480068401E0749086000F03AFE25
:101C6000204600F05FF8044800680028E4D110BD69
:101C7000F41000209C0400209804002070B5044655
:101C80000D46206C70B1216CE0680144E160D4E93C
:101C90000210884201D32168E1602846226CE16885
:101CA000FEF7E0FA70BD2DE9F04104460F461546F7
:101CB0004FF00008A66B206C48B9206800282CD192
:101CC000A06801F02BFD80460020A06025E07DB9D2
:101CD0003946226C6068FEF7C5FA216C60680844DA
:101CE0006060D4E90101884217D32068606014E085
:101CF0003946226CE068FEF7B5FA216CE068411ABB
:101D0000E1602168E068884203D2216CA068411A32
:101D1000E160022D01D106B1761E701CA063404621
:101D2000BDE8F08110B50446206B00F0F1FD2046BF
:101D300000F0EEFD10BD00000146084A126812686E
:101D40000AB9012200E000220A600A6822B9034AA7
:101D50001268D268106800E000207047C8040020B4
:101D600030B54FF44843174800F007042CB1C01DAC
:101D700020F00700134C041B1B1B0246124C226070
:101D80000024114D6C60D018083820F007000F4C6B
:101D9000206000240D4D2D686C600C4D2D682C606A
:101DA0001146441A4C60094C24680C60084D4C687C
:101DB0002C60084D4C682C604FF00044064D2C60A0
:101DC00030BD000044110020E8040020F004002091
:101DD000F8040020F40400200405002000BFFFF7F1
:101DE00029FF064800680128F9D94FF080500449BE
:101DF0000860BFF34F8FBFF36F8FF0E7380E0020FE
:101E000004ED00E02DE9F04106460D4617469846E0
:101E1000069C0DB9246000E02760E663256401217B
:101E2000204601F0C1F80020A064BDE8F0812DE952
:101E3000FF5F81460E469246DDE90E7B109CAAF1BB
:101E40000100216B01EB800828F0070808F007006B
:101E500008B9012000E0002050B900BFA02080F3A5
:101E60001188BFF34F8FBFF36F8F00BF00BFFEE736
:101E700086B1002507E0715D04F134004155705DC5
:101E800000B902E06D1C102DF5D300BF00214320E6
:101E9000015502E0002084F83400202F00D31F27D2
:101EA000E76267640020A064201D00F0C0FC04F11C
:101EB000180000F0BCFC2461C7F12000A06164623E
:101EC0000020E06484F8500049464046039A00F040
:101ED000D1FB2060BBF1000F01D0CBF80040BDE882
:101EE000FF9F000010B5002407E004EB84010F4AB7
:101EF00002EB810000F08EFC641C202CF5D30C4812
:101F000000F088FC0B4800F085FC0B4800F082FCD8
:101F10000A4800F07FFC0A4800F07CFC04480949AC
:101F2000086004480849086010BD0000380E002011
:101F3000B8100020CC100020E0100020F410002089
:101F400008110020900400209404002010B50146E0
:101F5000164800E0006803688B42FBD302464368E2
:101F600013448B4204D143684C68234443600146C8
:101F70000A464B6813440468A34211D10C4C036811
:101F80002468A34208D04B680468646823444B600B
:101F900003681B680B6005E0054B1B680B6001E0E4
:101FA00003680B60884200D0016010BDE804002087
:101FB000F00400202DE9F04104460D4616461F4668
:101FC0004FF0000865602461B5420CD8F01BA16990
:101FD000884202D34FF0010811E0211D0948006832
:101FE00000F028FC0BE0BE4204D2BD4202D34FF009
:101FF000010804E0211D0448006800F01BFC404675
:10200000BDE8F081CC040020C804002070B505466E
:1020100000F036FCA86B08B9012400E0002400F0B1
:1020200059FC204670BD70B5054600F029FCA86B30
:10203000E96B884201D1012400E0002400F04AFC51
:10204000204670BDF1B50098846C002654B900BFDD
:10205000A02080F31188BFF34F8FBFF36F8F00BFB5
:1020600000BFFEE7A06BE16B884201D2012000E0D7
:10207000002050B900BFA02080F31188BFF34F8F1C
:10208000BFF36F8F00BF00BFFEE7A06BE16B88421C
:102090002CD294F94550002269462046FFF703FEF2
:1020A0000646681C60B9606A08B9012000E000209B
:1020B000D8B904F1240001F08FFBB0B1012614E07F
:1020C0007F2D01D0012000E0002050B900BFA020EA
:1020D00080F31188BFF34F8FBFF36F8F00BF00BF36
:1020E000FEE7681C40B284F8450000BF3046F8BDEA
:1020F000F8B505460F461A480068C068C468201D38
:1021000000F074FB94F8240000F00400E8B1A0692A
:1021100041192B463A462046FFF74CFFD8B1002024
:1021200003462A4601460090204601F04FFC064631
:1021300056B900BFA02080F31188BFF34F8FBFF3C3
:102140006F8F00BF00BFFEE705E094F8240020F089
:10215000010084F824002046216A8847F8BD000069
:10216000C8040020F0B587B0A0E00398002811DA79
:1021700004AE56B900BFA02080F31188BFF34F8F83
:10218000BFF36F8F00BF00BFFEE7D6E90020B16844
:10219000904700BF03980028E6DB059C606908B9FA
:1021A000012000E0002010B9201D00F01FFB02A854
:1021B00000F0DCF8054603980A2875D2DFE800F045
:1021C00009050739416306083A4200BF00BF00BF56
:1021D00000BF94F8240040F0010084F82400049823
:1021E000A269811803462A462046FFF7E3FEF8B1AC
:1021F0002046216A884794F8240000F00400B8B112
:10220000002000900498A169421800231946204636
:1022100001F0DCFB074657B900BFA02080F311880E
:10222000BFF34F8FBFF36F8F00BF00BFFEE700BF4C
:102230003BE000BF94F8240020F0010084F8240063
:1022400033E000BF94F8240040F0010084F824003B
:102250000498A061A06908B1012000E0002050B9F5
:1022600000BFA02080F31188BFF34F8FBFF36F8FA3
:1022700000BF00BFFEE7A06941192B462A46204651
:10228000FFF798FE11E094F8240000F0020018B95E
:10229000204600F03DFB05E094F8240020F001000A
:1022A00084F8240001E0FFE700BF00BF002203A97B
:1022B0000448006801F04CF800287FF456AF07B0DE
:1022C000F0BD0000D0040020F8B505460C4600F033
:1022D00017FD684600F04AF80646009820BB44B94E
:1022E000B54206D801F0C4FA31462846FFF700FF90
:1022F0001CE03CB10E480068006808B9012000E00D
:1023000000200446A91B22460A48006800F0A2FBF0
:1023100001F0AEFA50B94FF0805007490860BFF3A2
:102320004F8FBFF36F8F01E001F0A2FAF8BD0000FC
:10233000CC040020D004002004ED00E0094800682F
:10234000006808B9012000E0002020B14FF0FF3004
:102350000549086005E003480068C0680068024954
:102360000860704790040020BC04002070B504464B
:1023700001F02AF9054607480068854204D200F0BA
:102380000BF80120206001E000202060014805607A
:10239000284670BDD80400202DE9F84334E02548D4
:1023A0000068C068056823480068C068C468201DCC
:1023B00000F01CFA2046216A884794F8240000F0B7
:1023C000040008B3A0694619AE4207D966602461CB
:1023D000211D1848006800F02DFA15E00020034682
:1023E0002A4601460090204601F0F0FA074657B908
:1023F00000BFA02080F31188BFF34F8FBFF36F8F12
:1024000000BF00BFFEE700BF0A480068006808B9C7
:10241000012000E000200028C1D00648D0F800804C
:1024200005480068034908600348C0F80080BDE81B
:10243000F8830000C8040020CC0400200E48006887
:10244000401C08B9012000E0002050B900BFA020C6
:1024500080F31188BFF34F8FBFF36F8F00BF00BFB2
:10246000FEE700BFA02080F31188BFF34F8FBFF3BA
:102470006F8F00BF00BFFEE7DC04002008B500BF7F
:102480006846FFF759FC044620460099FFF71CFFF9
:10249000FFF768FEF4E770B5044600F0F1F994F92F
:1024A000455019E0A06C30B12046FFF7CBFD88B154
:1024B00000F09AFB0EE0606A08B9012000E00020FD
:1024C00038B904F1240001F087F918B100F08CFB51
:1024D00000E003E0681E45B2002DE3DC00BFFF20F2
:1024E00084F8450000F0F6F900F0CAF994F9445078
:1024F00010E0206908B9012000E0002048B904F18B
:10250000100001F069F908B100F06EFB681E45B2D9
:1025100000E001E0002DECDC00BFFF2084F8440067
:1025200000F0D8F970BD00002DE9F04104464FF0ED
:10253000000800F0E5FB4948006808B9FFF710FC07
:10254000474800682040002870D1D4B1083404F016
:102550000700B0B104F00700C0F10800044404F023
:10256000070008B9012000E0002050B900BFA020FA
:1025700080F31188BFF34F8FBFF36F8F00BF00BF91
:10258000FEE7002C52D03748006884424ED8364EC1
:102590003046056801E02E462D686868A04202D2E8
:1025A00028680028F7D12D48006885423ED0306861
:1025B00000F10808286830606868001B102819D9E5
:1025C0002F1907F0070008B9012000E0002050B9DA
:1025D00000BFA02080F31188BFF34F8FBFF36F8F30
:1025E00000BF00BFFEE76868001B78606C6038467B
:1025F000FFF7ACFC1B4968680968081A19490860AC
:102600000846006819490968884203D215480068DD
:102610001649086012496868096808436860002024
:10262000286013480068401C1149086001F020F937
:1026300008F0070008B9012000E0002050B900BFF1
:10264000A02080F31188BFF34F8FBFF36F8F00BFBF
:1026500000BFFEE74046BDE8F0810000F004002026
:1026600004050020F4040020E8040020F804002001
:10267000FC040020001F4FF080730360001F21F056
:1026800001030360001F054B036014380260001F44
:102690006FF0020303602038704700003D24000003
:1026A0002DE9F047074688461446164E08F11F03E9
:1026B00007F11F0241463846FDF7A4FE06EBC4169B
:1026C0004FF0000918E000250FE030780121A94003
:1026D000084020B10C480088FEF7A9FA03E00B4837
:1026E0000088FEF7A4FA681CC5B2082DEDDB761C45
:1026F00009F1010000F0FF09B9F1800FE3DBBDE84B
:10270000F08700003C0000207E0400207C040020B4
:10271000002449E0FEF736FFFEF7AEFD4FF6FF70EE
:10272000224908804FF47840214908800022114650
:102730000A20FFF7B5FF012200212D20FFF7B0FF8F
:10274000022200215020FFF7ABFF0322002173205B
:10275000FFF7A6FF042200219620FFF7A1FF15A294
:1027600023210A20FEF741FA17A237210A20FEF79B
:102770003CFA0323F02237214620FEF7F7F914A292
:1027800037216E20FEF731FA0323F0223721A020F3
:10279000FEF7ECF92246641C03239B214620FEF73A
:1027A000E5F9012000F07CF9B4E700007C0400208A
:1027B0007E040020312E33204950532D53504920A0
:1027C0003234302A333230004C43445F573A0000F1
:1027D0004C43445F483A000008B500F0F5FE009015
:1027E00003E00121684600F089F9FAE701460A6929
:1027F000D1E901309860D1E90103586050688842FE
:1028000001D188685060002008611068401E106087
:102810001068704700F1080141604FF0FF3181609E
:1028200000F10801C16001610021016070470021D1
:102830000161704710B502460B685C1C0CB9106949
:1028400007E002F1080000E04068446824689C4208
:10285000FAD944684C604C68A160886041600A61A4
:102860001468641C146010BD42684A6093688B60F1
:10287000936859609160086103685B1C036070474E
:1028800000BFA02080F31188BFF34F8FBFF36F8F7D
:1028900000BF0E480068401C0C49086008460068EC
:1028A000012812D10A480068C0B208B9012000E02E
:1028B000002050B900BFA02080F31188BFF34F8FD4
:1028C000BFF36F8F00BF00BFFEE77047DC0400203E
:1028D00004ED00E00D48006850B900BFA02080F36F
:1028E0001188BFF34F8FBFF36F8F00BF00BFFEE7AC
:1028F00006480068401E054908600846006820B97F
:10290000002080F3118800BF00BF7047DC04002066
:1029100070B506463546002E44D0083D2C46224967
:1029200060680968084008B1012000E0002050B943
:1029300000BFA02080F31188BFF34F8FBFF36F8FCC
:1029400000BF00BFFEE7206808B9012000E00020BA
:1029500050B900BFA02080F31188BFF34F8FBFF3A1
:102960006F8F00BF00BFFEE70F496068096808402D
:10297000C0B12068B0B90C496068096888436060DC
:1029800000F0BEF909496068096808440749086011
:102990002046FFF7DBFA06480068401C044908603F
:1029A00000F066FF70BD000004050020F404002064
:1029B0000005002010B500204FF0E021086188617B
:1029C000FDF708FE4FF47A71B0FBF1F0401E4FF0B6
:1029D000E02148610720086110BD000070B5FDF7D7
:1029E00017FC0446102C16D304F1E02090F8F053A5
:1029F00015480078854201DB012000E0002050B935
:102A000000BFA02080F31188BFF34F8FBFF36F8FFB
:102A100000BF00BFFEE70D48006800F4E0600C490D
:102A20000968884201D8012000E0002050B900BFA9
:102A3000A02080F31188BFF34F8FBFF36F8F00BFCB
:102A400000BFFEE770BD0000E00400200CED00E0D8
:102A5000E40400202DE9F04105460E4617462C46B9
:102A6000FFF70EFF94F94400401C10B9002084F8D1
:102A7000440094F94500401C10B9002084F845003A
:102A8000FFF728FFA06B28B93A46314604F124002D
:102A900000F0CCF82046FFF7FEFCBDE8F081000016
:102AA00070B504460025D4B11248006808B9012069
:102AB00000E0002050B900BFA02080F31188BFF3D0
:102AC0004F8FBFF36F8F00BF00BFFEE700F018F914
:102AD00000212046FEF7E2FF00F0CAFE05463DB9A0
:102AE0004FF0805004490860BFF34F8FBFF36F8FE2
:102AF00070BD0000C404002004ED00E02DE9F047A3
:102B000004460F464FF0000954B900BFA02080F3DF
:102B10001188BFF34F8FBFF36F8F00BF00BFFEE779
:102B20000FB1012000E0002050B900BFA02080F3C9
:102B30001188BFF34F8FBFF36F8F00BF00BFFEE759
:102B40002048006808B9012000E0002050B900BF0B
:102B5000A02080F31188BFF34F8FBFF36F8F00BFAA
:102B600000BFFEE700F0CCF8174806682068C519DA
:102B70002068B04207D92068A8420BD9B54209D9CC
:102B80004FF0010906E02068A84201D8B54201D9FA
:102B90004FF001092560B9F1000F03D0A81B0021F7
:102BA000FEF77CFF00F064FE8046B8F1000F07D10D
:102BB0004FF0805005490860BFF34F8FBFF36F8F10
:102BC000BDE8F087C4040020A004002004ED00E06C
:102BD00003490968016003490968416070470000C2
:102BE000B4040020A00400200120014908607047BF
:102BF000B004002070B504460D4654B900BFA020B3
:102C000080F31188BFF34F8FBFF36F8F00BF00BFFA
:102C1000FEE70548016818312046FFF70BFE012149
:102C20002846FEF73BFF70BD8C04002070B50546BA
:102C30000E46144655B900BFA02080F31188BFF39B
:102C40004F8FBFF36F8F00BF00BFFEE706480168DC
:102C500018312846FFF708FE0CB14FF0FF36214629
:102C60003046FEF71BFF70BD8C0400201CB51D48CC
:102C700000210B468022CDE900101BA11C4800F06A
:102C800063FC0446012C02D100F074FE0446012CC2
:102C900015D100BFA02080F31188BFF34F8FBFF381
:102CA0006F8F00BF4FF0FF301249086001201249BA
:102CB000086000201149086000F070F810E0601C06
:102CC00008B1012000E0002050B900BFA02080F32F
:102CD0001188BFF34F8FBFF36F8F00BF00BFFEE7B8
:102CE0001CBD0000C004002049444C450000000009
:102CF000DD1D0000BC040020A8040020A00400206A
:102D000002480068401C014908607047C404002064
:102D10001D48006818B101201C49086032E00020FD
:102D20001A4908601A480068B0FA80F0C0F11F0123
:102D300001EB8100174A52F8200008B1012000E0A1
:102D4000002050B900BFA02080F31188BFF34F8F3F
:102D5000BFF36F8F00BF00BFFEE701EB81020D4B99
:102D600003EB820042685268426000F10802436847
:102D7000934202D14268526842604268D268064B70
:102D80001A6000BF70470000C4040020B004002097
:102D9000A4040020380E00208C0400201CB55C48E0
:102DA00000685C49884201D0012000E0002050B951
:102DB00000BFA02080F31188BFF34F8FBFF36F8F48
:102DC00000BF00BFFEE7524800685249491E8842D2
:102DD00001D0012000E0002050B900BFA02080F306
:102DE0001188BFF34F8FBFF36F8F00BF00BFFEE7A7
:102DF0004949084600780190FF200A4610700846AD
:102E0000007800909DF8000000F0E0009DF80020A0
:102E1000904201D1012000E0002050B900BFA02065
:102E200080F31188BFF34F8FBFF36F8F00BF00BFD8
:102E3000FEE79DF8000000F0A000384A107007205F
:102E4000374A106009E036480068401E344A106076
:102E50009DF800004006000E00909DF8000000F074
:102E600080008028EFD02E480068C0F107000328BA
:102E700001D1012000E0002050B900BFA02080F364
:102E80001188BFF34F8FBFF36F8F00BF00BFFEE706
:102E900023480068C0F10700032801D1012000E0A9
:102EA000002050B900BFA02080F31188BFF34F8FDE
:102EB000BFF36F8F00BF00BFFEE719480068000234
:102EC000174A10601046008800F4E0601060124A53
:102ED000019810700E482030006840F460000C49E2
:102EE000203108600846006840F060400860FFF745
:102EF00061FD00200B490860FDF752F90A4800689F
:102F000040F0404008490860FDF736F900201CBD3C
:102F100000ED00E071C20F4100E400E0E004002099
:102F2000E4040020DC04002034EF00E02DE9F84345
:102F300005460E4690460DB1012000E0002050B934
:102F400000BFA02080F31188BFF34F8FBFF36F8FB6
:102F500000BF00BFFEE705FB06F71EB1B7FBF6F0AA
:102F6000A84201D1012000E0002050B900BFA020FC
:102F700080F31188BFF34F8FBFF36F8F00BF00BF87
:102F8000FEE707F14C00FFF7CFFA04464CB1A1462B
:102F900009F14C0943464A46314628460094FEF75B
:102FA00031FF2046BDE8F88370B505460E462C4635
:102FB00054B900BFA02080F31188BFF34F8FBFF337
:102FC0006F8F00BF00BFFEE7FFF75AFCD4E90F1276
:102FD000206801FB0200A0600020A0632068606000
:102FE000E06B401E226C216800FB0211E160FF20B3
:102FF00084F8440084F845009EB9206908B901208E
:1030000000E00020A8B904F1100000F0E5FB80B159
:103010004FF0805009490860BFF34F8FBFF36F8FA7
:1030200007E004F11000FFF7F5FB04F12400FFF7BF
:10303000F1FBFFF74FFC012070BD000004ED00E044
:103040002DE9FF4782B0064688461D464FF000092D
:10305000344654B900BFA02080F31188BFF34F8FCE
:10306000BFF36F8F00BF00BFFEE7B8F1000F01D1C3
:10307000206C08B9012000E0002050B900BFA0205A
:1030800080F31188BFF34F8FBFF36F8F00BF00BF76
:10309000FEE7022D02D1E06B012801D1012000E002
:1030A000002050B900BFA02080F31188BFF34F8FDC
:1030B000BFF36F8F00BF00BFFEE700F075FA08B9DD
:1030C000049808B9012000E0002050B900BFA020FA
:1030D00080F31188BFF34F8FBFF36F8F00BF00BF26
:1030E000FEE700BFFFF7CCFBA06BE16B884201D38A
:1030F000022D3ED1D4F838A02A4641462046FEF79C
:10310000D2FD0746A06C88B1022D02D1BAF1000FA2
:1031100029D12046FEF796FF28B34FF080503D4955
:103120000860BFF34F8FBFF36F8F1CE0606A08B970
:10313000012000E0002068B904F1240000F04CFBFD
:1031400088B14FF0805033490860BFF34F8FBFF311
:103150006F8F08E03FB14FF080502E490860BFF3F9
:103160004F8FBFF36F8FFFF7B5FB012006B0BDE8AF
:10317000F087049818B9FFF7ADFB0020F6E7B9F126
:10318000000F04D16846FFF723FD4FF00109FFF758
:10319000A1FBFFF7B5FDFFF773FB94F94400401C5A
:1031A00010B9002084F8440094F94500401C10B97F
:1031B000002084F84500FFF78DFB04A9684600F065
:1031C0007BF9F8B92046FEF72EFFA8B104F11000F4
:1031D0000499FFF70FFD2046FFF75DF900F048FB6B
:1031E00000287FF47FAF4FF080500A490860BFF39A
:1031F0004F8FBFF36F8F75E72046FFF74CF900F054
:1032000037FB6FE72046FFF746F900F031FB00205F
:10321000ACE7000004ED00E02DE9F84F80468B4656
:1032200015461E46444654B900BFA02080F31188BD
:10323000BFF34F8FBFF36F8F00BF00BFFEE7BBF13F
:10324000000F01D1206C08B9012000E0002050B926
:1032500000BFA02080F31188BFF34F8FBFF36F8FA3
:1032600000BF00BFFEE7022E02D1E06B012801D1B2
:10327000012000E0002050B900BFA02080F3118899
:10328000BFF34F8FBFF36F8F00BF00BFFEE7FFF7A5
:10329000A5FB00BFA021EFF3118081F31188BFF3DC
:1032A0004F8FBFF36F8F00BF0746A06BE16B884263
:1032B00001D3022E42D194F945A0A06B0090324672
:1032C00059462046FEF7EFFC0AF10100E0B9A06C78
:1032D00058B1022E01D1009868BB2046FEF7B2FE1D
:1032E00048B345B30120286025E0606A08B9012091
:1032F00000E00020F8B904F1240000F06DFAD0B12C
:10330000CDB10120286016E0BAF17F0F01D0012075
:1033100000E0002050B900BFA02080F31188BFF367
:103320004F8FBFF36F8F00BF00BFFEE70AF10100B0
:1033300040B284F845004FF0010901E04FF0000968
:1033400000BF87F3118800BF4846BDE8F88F000032
:103350002DE9F74183B005460E464FF000082C4694
:1033600054B900BFA02080F31188BFF34F8FBFF383
:103370006F8F00BF00BFFEE70EB9206C08B90120B7
:1033800000E0002050B900BFA02080F31188BFF3F7
:103390004F8FBFF36F8F00BF00BFFEE700F004F94F
:1033A00008B9059808B9012000E0002050B900BF15
:1033B000A02080F31188BFF34F8FBFF36F8F00BF42
:1033C00000BFFEE700BFFFF75BFAA76BF7B131461E
:1033D0002046FEF753FC781EA063206908B901203F
:1033E00000E0002060B904F1100000F0F5F938B1F8
:1033F0004FF080502F490860BFF34F8FBFF36F8F9E
:10340000FFF768FA012006B0BDE8F081059818B909
:10341000FFF760FA0020F6E7B8F1000F04D101A829
:10342000FFF7D6FB4FF00108FFF754FAFFF768FCEF
:10343000FFF726FA94F94400401C10B9002084F8E4
:10344000440094F94500401C10B9002084F8450060
:10345000FFF740FA05A901A800F02EF8F0B92046C0
:10346000FEF7D4FDA0B104F124000599FFF7C2FBDB
:103470002046FFF710F800F0FBF90028A3D14FF029
:1034800080500C490860BFF34F8FBFF36F8F9AE7EE
:103490002046FFF700F800F0EBF994E72046FEF72E
:1034A000FAFF00F0E5F92046FEF7B0FD00288AD0CB
:1034B0000020A8E704ED00E070B505460C4655B9BC
:1034C00000BFA02080F31188BFF34F8FBFF36F8F31
:1034D00000BF00BFFEE754B900BFA02080F31188F1
:1034E000BFF34F8FBFF36F8F00BF00BFFEE7FFF743
:1034F000C7F9134802686868131A2068401C08B9A5
:10350000002619E00F4928680968884206D06868D3
:10351000904203D80126002020600DE020689842E8
:1035200007D92068C01A20602846FFF751FB002603
:1035300002E0002020600126FFF7CCF9304670BD84
:10354000A0040020B40400202DE9FF4F85B0804680
:1035500089461746DDE912ABB800FEF7E5FF0646DF
:1035600056B15420FEF7E0FF04460CB1266304E098
:103570003046FFF7CDF900E000247CB10020CDE912
:1035800000ABCDE902403A4649464046089BFEF76B
:103590004EFC2046FEF7CEFA012501E04FF0FF3544
:1035A000284609B0BDE8F08F0549096809B901202E
:1035B00005E00449096809B9022000E000207047CD
:1035C000A8040020C40400200149086870470000D6
:1035D000A00400202DE9F0414FF0000844480068A5
:1035E00000287CD143480068451C4248056015BB53
:1035F00041480068006808B9012000E0002050B987
:1036000000BFA02080F31188BFF34F8FBFF36F8FEF
:1036100000BF00BFFEE738480768384800683649F1
:1036200008603648076036480068401C3449086026
:10363000FEF784FE00BF3348006885423CD300BFDC
:103640002D480068006808B9012000E0002020B182
:103650004FF0FF302B4908602DE027480068C06814
:10366000C4686668B54202D22648066023E0201D81
:10367000FFF7BCF8A06A18B104F11800FFF7B6F81C
:1036800094F82C10012088401F49096808431E49FE
:103690000860E16A01EB81011C4A02EB8100211DF7
:1036A000FFF7E2F81A49E06A0968C96A8842C7D395
:1036B0004FF00108C4E700BF15480068C06A00EB7E
:1036C0008000124951F82000012801D94FF001086B
:1036D0001048006808B14FF0010805E0FFE70E4808
:1036E0000068401C0C4908604046BDE8F0810000BD
:1036F000C4040020A00400209004002094040020B2
:10370000B4040020BC040020A4040020380E0020D3
:103710008C040020B0040020AC04002070B50546E5
:103720002C460026002D4ED028480068844201D146
:10373000012000E0002050B900BFA02080F31188D4
:10374000BFF34F8FBFF36F8F00BF00BFFEE7A06CCA
:1037500050B900BFA02080F31188BFF34F8FBFF393
:103760006F8F00BF00BFFEE7A06C401EA064616CBD
:10377000E06A884227D0A06C28BB201DFFF736F8EE
:1037800040B994F82C100120884011490968814300
:103790000F480160606CE062E06AC0F12000A06147
:1037A00094F82C1001208840094909680843084909
:1037B0000860E16A01EB8101064A02EB8100211DEC
:1037C000FFF752F80126304670BD00008C0400203F
:1037D000A4040020380E002070B50646F068C468C6
:1037E00054B900BFA02080F31188BFF34F8FBFF3FF
:1037F0006F8F00BF00BFFEE704F11800FEF7F6FF71
:1038000015480068A8B9201DFEF7F0FF94F82C10A9
:103810000120884011490968084310490860E16A9D
:1038200001EB81010E4A02EB8100211DFFF71CF81C
:1038300004E004F118010B48FFF716F80A49E06AA2
:103840000968C96A884204D901250120074908602E
:1038500000E00025284670BDC4040020A404002018
:10386000380E0020E01000208C040020B00400205E
:1038700070B5002400263648006850B900BFA0206B
:1038800080F31188BFF34F8FBFF36F8F00BF00BF6E
:10389000FEE7FEF7F5FF2E480068401E2C49086041
:1038A0000846006800284FD12A48006800284BD0FD
:1038B00024E02948C068C46804F11800FEF796FFA8
:1038C000201DFEF793FF94F82C1001208840234917
:1038D0000968084321490860E16A01EB8101204A37
:1038E00002EB8100211DFEF7BFFF1E49E06A096857
:1038F000C96A884202D301201B4908601648006843
:1039000008B9012000E000200028D2D00CB1FEF759
:1039100015FD1648056865B100BFFFF75BFE10B1E5
:103920000120114908606D1E002DF6D100200F49BD
:1039300008600D48006838B1012630070C4908605E
:10394000BFF34F8FBFF36F8FFEF7C4FF304670BDDC
:10395000C40400209C040020E0100020A4040020E7
:10396000380E00208C040020B0040020AC0400209D
:1039700004ED00E01CB50024FEF736F90E4800689F
:1039800058B10E481F2100234FF48072CDE900107A
:103990000BA10D48FFF7D8FD044654B900BFA02085
:1039A00080F31188BFF34F8FBFF36F8F00BF00BF4D
:1039B000FEE720461CBD0000D0040020D4040020F7
:1039C000546D7220537663007D2400002DE9FF477B
:1039D00004460D4616461F46DDF830804FF00009BC
:1039E00054B900BFA02080F31188BFF34F8FBFF3FD
:1039F0006F8F00BF00BFFEE71448006810B300954A
:103A000001960294062D15DAFFF7CEFD022808D1A3
:103A10000023424669460D480068FFF711FB8146C6
:103A200010E000231A46694608480068FFF708FBC3
:103A3000814607E000233A46694604480068FFF7DC
:103A4000EBFB8146484604B0BDE8F087D004002077
:103A500080000000006CDC0200093D000020000036
:103A60000000000000400000000200008000000094
:103A7000006CDC0200093D00002000000000000096
:103A800000000000000000008000000006000000B0
:103A90000000000000000000000000000000000026
:103AA0000000000000000000010000008000000095
:103AB0001A000000010000000000000000000000EB
:103AC00000000000000000000000000001000000F5
:103AD00000020000300000001400000000000000A0
:103AE00000000000040000000400000000000000CE
:103AF000600000000A00000000000000000000005C
:103B0000000000000000000000000008080808088D
:103B1000080800001818000000486C24120000007B
:103B200000000000000000000000002424247F1298
:103B300012127F12121200000000081C2A2A0A0C1E
:103B40001828282A2A1C0808000000222515151507
:103B50002A585454542200000000000C1212120A79
:103B600076252911916E000000060604030000006E
:103B700000000000000000000040201010080808AD
:103B80000808081010204000000204080810101057
:103B900010101008080402000000000008086B1C48
:103BA0001C6B08080000000000000000080808085E
:103BB0007F08080808000000000000000000000066
:103BC00000000000060604030000000000000000E2
:103BD000FE000000000000000000000000000000E7
:103BE0000000000006060000000080404020201079
:103BF0001008080404020200000000182442424297
:103C00004242424224180000000000080E08080842
:103C100008080808083E00000000003C424242201C
:103C200020100804427E00000000003C42422018A0
:103C300020404042221C00000000002030282424A4
:103C400022227E20207800000000007E0202021A5C
:103C500026404042221C0000000000382402021AC4
:103C600026424242241800000000007E222210104A
:103C700008080808080800000000003C42424224EE
:103C800018244242423C00000000001824424242F4
:103C900064584040241C0000000000000000181878
:103CA00000000000181800000000000000000008DC
:103CB0000000000000080804000000402010080474
:103CC00002040810204000000000000000007F00F7
:103CD00000007F0000000000000000020408102027
:103CE00040201008040200000000003C4242464010
:103CF00020101000181800000000001C225A555512
:103D000055552D42221C000000000008081814140C
:103D1000243C224242E700000000001F2222221E13
:103D200022424242221F00000000007C4242010168
:103D300001010142221C00000000001F22424242F9
:103D400042424242221F00000000003F4212121E67
:103D500012120242423F00000000003F4212121EB7
:103D600012120202020700000000003C22220101A0
:103D700001712122221C0000000000E74242424261
:103D80007E42424242E700000000003E0808080868
:103D900008080808083E00000000007C1010101001
:103DA000101010101010110F0000007722120A0ED0
:103DB0000A1212222277000000000007020202020B
:103DC00002020202427F00000000007736363636DB
:103DD0002A2A2A2A2A6B0000000000E346464A4AA3
:103DE00052525262624700000000001C22414141D1
:103DF00041414141221C00000000003F424242423A
:103E00003E020202020700000000001C2241414164
:103E100041414D53321C60000000003F4242423E8F
:103E20001212222242C700000000007C424202041B
:103E300018204042423E00000000007F4908080868
:103E400008080808081C0000000000E7424242423F
:103E500042424242423C0000000000E7424222242B
:103E600024141418080800000000006B494949494F
:103E70005555362222220000000000E74224241873
:103E80001818242442E700000000007722221414AE
:103E900008080808081C00000000007E21201010FF
:103EA00008040442423F0000007808080808080897
:103EB000080808080808780000000202040408083E
:103EC0000810102020204040001E1010101010106C
:103ED0001010101010101E000038440000000000E8
:103EE00000000000000000000000000000000000D2
:103EF00000000000000000FF0006080000000000B5
:103F00000000000000000000000000000000003C75
:103F10004278444242FC0000000000030202021A00
:103F200026424242261A000000000000000000382D
:103F30004402020244380000000000604040407823
:103F40004442424264D80000000000000000003CEF
:103F5000427E0202423C0000000000F08808087E19
:103F600008080808083E0000000000000000007C6F
:103F700022221C023C42423C000000030202023AA0
:103F80004642424242E700000000000C0C00000ED6
:103F900008080808083E0000000000303000003823
:103FA000202020202020221E000000030202027296
:103FB000120A1612227700000000000E08080808F6
:103FC00008080808083E0000000000000000007F0C
:103FD0009292929292B70000000000000000003B15
:103FE0004642424242E70000000000000000003C60
:103FF00042424242423C0000000000000000001B20
:1040000026424242221E0207000000000000007803
:1040100044424242447840E0000000000000007743
:104020004C040404041F0000000000000000007C99
:1040300042023C40423E0000000000000008083EF2
:1040400008080808083000000000000000000063B5
:104050004242424262DC000000000000000000E733
:10406000422424140808000000000000000000EBB7
:10407000494955552222000000000000000000764A
:1040800024181818246E000000000000000000E74B
:104090004224241418080807000000000000007ED5
:1040A00022100808447E000000C02020202020109C
:1040B000202020202020C000101010101010101000
:1040C0001010101010101010000608080808081032
:1040D00008080808080806000C32C20000000000AA
:1040E0000000000000000000182001401C200140DA
:1040F0002020014024200140282001402C200140A4
:104100003020014034200140382001403C20014053
:104110004020014044200140482001404C20014003
:104120005020014054200140582001405C200140B3
:104130006020014064200140682001406C20014063
:104140007020014074200140782001407C20014013
:104150008020014084200140882001408C200140C3
:10416000902001409420014000E100E004E100E0E3
:1041700080E100E084E100E000E200E004E200E031
:1041800080E200E084E200E000070000000600009A
:104190000005000000040000000300000002000011
:1041A00000010000000000000000000018ED00E029
:1041B0001CED00E020ED00E000E400E004E400E09D
:1041C00008E400E00CE400E010E400E014E400E0A7
:1041D00018E400E01CE400E020E400E024E400E057
:1041E00028E400E02CE400E030E400E034E400E007
:1041F00038E400E03CE400E0184200000000002049
:1042000040050000AC0200002444000040050020EE
:1042100008E40000FC110000C16A8008531A0692ED
:1042200008100D010204081632640306122448F433
:104230004125332939FB800104080D1A1080010C37
:10424000F0FFFF0F308001040419246A070C0912E3
:104250004809100401131A011914FFFF011A030879
:104260002904E90C3381812A0304261CFCFFFF3F4B
:104270001A400B5AC0282AC00C49041BFFFF4C22CD
:10428000411A0468230E711B07815A14010760103C
:104290000B010E1898011C04E001181927F11A08E7
:1042A000C4231F304A0C046809100C30FE3F0C3048
:1042B000041069041BC00C281E0D3030060E049C2F
:1042C0000C3010044B188604101208060D300C86B2
:1042D0000D3006EE0F3002FC0D30015B0CF0401982
:1042E0003C2A0F081A109ED1299019CB490889043D
:1042F00017E0FFFF0360C009130409161C59181AC0
:10430000010429441A08045A100419F81301380446
:104310001780FF1F2603C0FFFF071A8004293D32C4
:104320006032181A0C135A030419A41C80010804E3
:104330005E1CFCFFFF3F100928041AFC0432E082D7
:10434000401BF010012AFF050215F01B0F04012A83
:10435000FF0502130F18094040405F55555575047D
:104360001A5F0C091121080C11200F0949897909DC
:1043700009090F201F112FFE02424ACA4A030413E3
:104380004202FE000E14FF40504C4340404F50503C
:104390005C40FF1BF888012AFF050215F81B1F0867
:1043A000012A7F200B109F80E23B808201000916CA
:1043B000E2A2928A86828080041840807F1724249B
:1043C000A4FEA3221B22CCAA011415080601FF2B70
:1043D0000104010511FF0202025808101010FF101D
:1043E0009008C3021108080F150444827F018080E1
:1043F00040432C10284681A0015B1AAA0101351206
:104400004C1B4001041A20041A21041A40041A41CA
:10441000041A60041A61041A80042A8120124D02D1
:044420000040000058
:0400000500000145B1
:00000001FF
